{
  "contractName": "Web3Security",
  "abi": [
    {
      "constant": false,
      "inputs": [],
      "name": "disown",
      "outputs": [],
      "payable": false,
      "stateMutability": "nonpayable",
      "type": "function"
    },
    {
      "constant": false,
      "inputs": [
        {
          "internalType": "uint256",
          "name": "time",
          "type": "uint256"
        }
      ],
      "name": "suspendWithdrawals",
      "outputs": [],
      "payable": false,
      "stateMutability": "nonpayable",
      "type": "function"
    },
    {
      "constant": false,
      "inputs": [],
      "name": "kill",
      "outputs": [],
      "payable": false,
      "stateMutability": "nonpayable",
      "type": "function"
    },
    {
      "constant": false,
      "inputs": [],
      "name": "toggleContractActive",
      "outputs": [],
      "payable": false,
      "stateMutability": "nonpayable",
      "type": "function"
    }
  ],
  "bytecode": "0x60806040526000805461ffff60a01b1916600160a81b17815560015534801561002757600080fd5b50610259806100376000396000f3fe608060405234801561001057600080fd5b506004361061004c5760003560e01c80631385d24c146100515780631e9bf0da1461005b57806341c0e1b5146100635780634e5bd2341461006b575b600080fd5b610059610088565b005b6100596100f6565b610059610155565b6100596004803603602081101561008157600080fd5b50356101b0565b6000546001600160a01b031633146100d5576040805162461bcd60e51b815260206004820152601c6024820152600080516020610205833981519152604482015290519081900360640190fd5b6000805460ff60a81b198116600160a81b9182900460ff1615909102179055565b6000546001600160a01b03163314610143576040805162461bcd60e51b815260206004820152601c6024820152600080516020610205833981519152604482015290519081900360640190fd5b600080546001600160a01b0319169055565b6000546001600160a01b031633146101a2576040805162461bcd60e51b815260206004820152601c6024820152600080516020610205833981519152604482015290519081900360640190fd5b6000546001600160a01b0316ff5b6000546001600160a01b031633146101fd576040805162461bcd60e51b815260206004820152601c6024820152600080516020610205833981519152604482015290519081900360640190fd5b420160015556fe43616c6c6572206973206e6f7420636f6e7472616374206f776e657200000000a265627a7a723158205a635f36010fe8a7aa4449a642d915f55bb8606f3f69c9b221612a736fb06da464736f6c63430005100032",
  "source": "pragma solidity > 0.5.0;\r\nimport \"./LibraryDemo.sol\";\r\n\r\ncontract Web3Security {\r\n    address internal owner;\r\n    bool internal reentryProtector = false;\r\n    bool internal isContractActive = true;\r\n    uint internal withdrawalSuspendedUntilTime = 0;\r\n    uint internal constant MAX_STRING_LENGTH = 25;\r\n    uint internal constant IPFS_HASH_STRING_LENGTH = 46;\r\n\r\n    modifier externalFunctionCallIsNotOngoing() {\r\n        require(!reentryProtector, \"External call is ongoing. Function call denied.\");\r\n        _;\r\n    }\r\n\r\n    modifier isOwner() {\r\n        require(msg.sender == owner, \"Caller is not contract owner\");\r\n        _;\r\n    }\r\n\r\n    modifier isContractActivated {\r\n        require(isContractActive, \"Contract is deactive. Function call denied.\");\r\n        _;\r\n    }\r\n\r\n    modifier isContractDeactivated {\r\n        require(!isContractActive, \"Contract is actived. Function call denied.\");\r\n        _;\r\n    }\r\n\r\n    modifier isWithdrawalAllowed() {\r\n        require(block.timestamp >= withdrawalSuspendedUntilTime, \"Withdrawals are suspended temporarily\");\r\n        _;\r\n    }\r\n\r\n    modifier isValidString(string memory str) {\r\n        require(stringValidation(str),\r\n            \"Invalid string. Valid charactes a-z, A-Z, 0-9, dot and space. Max length is 25\");\r\n        _;\r\n    }\r\n\r\n    modifier isValidIpfsHashString(string memory str) {\r\n        require(ipfsHashValidation(str),\r\n            \"Invalid string. Valid charactes a-z, A-Z, 0-9, dot and space. Max length is 46. Starting with 'Qm'\");\r\n        _;\r\n    }\r\n\r\n    function disown()\r\n    public\r\n    isOwner()\r\n    {\r\n        delete owner;\r\n    }\r\n\r\n    function suspendWithdrawals(uint time)\r\n    public\r\n    isOwner()\r\n    {\r\n        withdrawalSuspendedUntilTime = now + time;\r\n    }\r\n\r\n    function kill()\r\n    public\r\n    isOwner()\r\n    {\r\n        selfdestruct(address(uint160(owner)));\r\n    }\r\n\r\n    function toggleContractActive()\r\n    public\r\n    isOwner()\r\n    {\r\n        isContractActive = !isContractActive;\r\n    }\r\n\r\n    function externalEnter()\r\n    internal\r\n    externalFunctionCallIsNotOngoing()\r\n    {\r\n        reentryProtector = true;\r\n    }\r\n\r\n    function externalLeave()\r\n    internal\r\n    {\r\n        reentryProtector = false;\r\n    }\r\n\r\n    function stringValidation(string memory str)\r\n    private\r\n    pure\r\n    returns (bool isValid)\r\n    {\r\n        bytes memory b = bytes(str);\r\n        if(b.length > MAX_STRING_LENGTH) {\r\n            return false;\r\n        }\r\n\r\n        for(uint i; i < b.length; i++) {\r\n            bytes1 char = b[i];\r\n            if (!(char >= 0x30 && char <= 0x39) && // 9-0\r\n                !(char >= 0x41 && char <= 0x5A) && // A-Z\r\n                !(char >= 0x61 && char <= 0x7A) && // a-z\r\n                !(char == 0x2E) && // .\r\n                !(char == 0x20) // space\r\n            ) {\r\n                return false;\r\n            }\r\n        }\r\n        return true;\r\n    }\r\n\r\n    function ipfsHashValidation(string memory ipfsHash)\r\n    private\r\n    pure\r\n    returns (bool isValid)\r\n    {\r\n        bytes memory b = bytes(ipfsHash);\r\n        if (b.length != IPFS_HASH_STRING_LENGTH) {\r\n            return false;\r\n        }\r\n\r\n        // starting with \"Qm\"\r\n        if (b[0] != 0x51 || b[1] != 0x6D) {\r\n            return false;\r\n        }\r\n\r\n        for (uint i; i < b.length; i++) {\r\n            bytes1 char = b[i];\r\n            if (!(char >= 0x30 && char <= 0x39) && // 9-0\r\n                !(char >= 0x41 && char <= 0x5A) && // A-Z\r\n                !(char >= 0x61 && char <= 0x7A) // a-z\r\n            ) {\r\n                return false;\r\n            }\r\n        }\r\n        return true;\r\n    }\r\n}",
  "sourcePath": "/mnt/c/users/shahida/downloads/ethbazaar/contracts/Web3Security.sol",
  "compiler": {
    "name": "solc",
    "version": "0.5.16+commit.9c3226ce.Emscripten.clang"
  },
  "schemaVersion": "3.0.23",
  "updatedAt": "2020-02-20T21:29:06.253Z",
  "devdoc": {
    "methods": {}
  },
  "userdoc": {
    "methods": {}
  }
}